:020000040000fa
:080000001011040000000000d3
:020000040000fa
:10222000ef8a20000eff27000e018800000000004a
:10223000000020000000e000020032000001200049
:10224000200288000c00070020db21000100200094
:102250000f000700000020000000e0000200320034
:102260000000020000000000361c02000000000018
:102270000040da000000fe00200020000000e00026
:1022800002003200100020009001880000000600cb
:10229000a1028800800078000000eb001a003700df
:1022a000e280400054a0b4009101ba00e2804000f6
:1022b00054a0b4009102ba00e280400054a0b400df
:1022c0000002eb00472bde00f507b200a6018800f4
:1022d000602ce10008003a000049eb000201e80030
:1022e000020039003420ec0002f0a0008301e90074
:1022f000f9ff3e00040037006128e10001003200d0
:102300000082eb00040007001101ba000200e000a7
:10231000e3ff3a000000060004d0a300e20f4900ea
:102320001c003900810278003549ba000201e8003a
:10233000020039003420ec0002f0a0008301e90023
:102340000f0032002549ba000201e80002003900fe
:102350003420ec0002f0a0008301e9000800320004
:102360000400e0000600320015c9ba000201e800ce
:10237000020039003420ec0002f0a0008301e900e3
:102380008180e80054a0b4000300e000e2ff3a00be
:10239000000006009102ba00055978008301e900a7
:1023a000f7ff3200c82ade00055978008301e900f2
:1023b000f3ff32000400e000f1ff320011d9ba004f
:1023c000eeff370003f0a200889fbe008a9fbe0088
:1023d0008c1f7800ee000700f50033006450e10028
:1023e0004f0032006420e1005200320003826c0092
:1023f00007003b000905d0000306d000820f5400ff
:102400000c065d00020039000200320089017800ec
:10241000030678008582550004003d000003fd009e
:102420008103fd008502ea008b854200840f720063
:1024300002003b0060001000e08018006011b8004e
:102440000005eb007a28e1000a0039000600780058
:10245000c75ddd00f707b200878075002d003700eb
:10246000828171000a017800610560008180d100dd
:102470000080d3008502e900f9ff3b00060440001c
:102480008784480002003b0060041400e0841c00c4
:102490000988a300070032008a81710082817100df
:1024a000610164008904d1000884d3008b05e80031
:1024b000170037000978a30013003a000b00e00072
:1024c000130034008b05e9000804440089844c00a3
:1024d0000a4474000978a3000d003a000b00e000e4
:1024e000070034008b05e9000804440089844c008f
:1024f00001003a000b0020000978a300f7ff32002a
:102500000001eb0002003700828171000a017800af
:10251000b70007000cf0a70001f0a000ad003700e5
:102520006420e10002003a00838f6c00ad003300ac
:102530000801be000200be00a6003700889fbe0052
:102540008a9fbe008c1f780091000700980033001e
:1025500003866c006450e1002e0032006420e1002c
:10256000330032006150e1002f0032006120e100b1
:102570003100320085855500eb07b00009002000ce
:1025800008042000050037000804440089844c003a
:102590000a0031000603430087834b00000153000b
:1025a00081815b00f8ff33000203be000800a00039
:1025b0000804440089844c00f6ff3900c639dd0068
:1025c0008301730001003200130020008904d10050
:1025d0000884d3000998a300050032000800a70072
:1025e0000300a0008904d1000884d3008b05e80013
:1025f0008904d1000884d3000001eb000281d200dd
:102600007b00070001f0a1000cf0a70001f0a00082
:10261000700037006420e100720032000801be0043
:102620000200be00f7ff37006120e1006d003200bc
:102630006000b800f3ff37000000200001f8270019
:10264000f0ff3700f4ff2f008f003700889fbe0097
:102650008a9fbe008c1f78004d0007005400330095
:1026600003866c006450e100240032006420e10025
:10267000270032006150e100220032006120e100b9
:10268000210032008b854200eb07b1000134b80015
:10269000003ab8000804420089844a00013ab800b0
:1026a0000030b8008880400009014a00040033006f
:1026b0000000400081804800020149008b05e900cc
:1026c000c909dd0083017000010032001300200001
:1026d000c814de004814dd004709de001200b20015
:1026e000c808de00088470004100070001f0a10066
:1026f0000cf0a70001f0a000360037006120e100d7
:10270000380032000801be000200be00f7ff3700ab
:102710006150e100fcff3a00320037000001be00ca
:10272000740007000470a70003f0a10003f8a300e1
:1027300013003a006509b1001000320009003500ad
:102740006928e100020035000100280000000500b2
:1027500000004000818048008502e900fcff3a004b
:1027600000000600f88f4200050035008100d1000e
:102770000080d3008502e800fcff3a00000006005c
:102780008000eb00000005006011b8006e0037000b
:102790000004be00570007000003be000405be0091
:1027a0000200be0053000700844f750000000600c1
:1027b0000200be006450e100050036006420e10024
:1027c000020036000968a30001003a000800be00bc
:1027d0000160a0004f0678004f05be004f04be0008
:1027e00000000600f0ff2f00f1ff2700f9ff37007f
:1027f00081002000618055000b003d000b0020008f
:1028000061fe2f000100e1001d0034008281710093
:10281000610164008904d1000884d3000000e8004d
:10282000faff3a00710020006100640003007000ac
:10283000020060000900320061044400e0844c00a2
:102840000988a500050032008b05e8006808e10052
:1028500002003a008904d1000884d300f20f20005e
:102860000258e10005003d00c75ddd00f907b20038
:102870008980750008007800000006000bf827002a
:102880008b00780000000500889fbe008a9fbe0074
:10289000841f7800beff07004f007800110033004e
:1028a000f0ff2f00838f6c0006003b0004056500dd
:1028b0000a00a7000800370009f0a6001000200059
:1028c00008003700820f5400838f5c00030039003a
:1028d0001000200001003e000000200009f0a700c9
:1028e0000000ea004f05be004f04be000000e000fb
:1028f00000000600c70ade00f107b200f50fb200c3
:1029000008003200e1cf4200020032000170a00056
:1029100024000500810f700001003200040805004a
:1029200044000500810f700002003a001400050009
:102930008502e9000000400081c04800fcff3b0028
:102940000170a00024000500889fbe008a9fbe0081
:1029500000827000040271000482710026003200bf
:102960000004be000200be006011b8006b09200028
:10297000950220000182cf000a0039000541b10014
:102980000082cf00070039000541b1000982cf0065
:10299000040039000541b1000882cf000100390070
:1029a0000541b10005425200120032000a003b000e
:1029b00082817100610164008100d1000080d30038
:1029c0008984d3000884d3008b05e8000442e80022
:1029d000f7ff3a00070037000804440089844c00e0
:1029e00000004800818048008b05e9000442e900ae
:1029f000f9ff3a007eff07004f05be004f04be00fe
:042a000000000600cc
:020000040000fa
:020000040002f8
:04aff400031c00003a
:020000040000fa
:020000040002f8
:04aff8000f890000bd
:020000040000fa
:020000040002f8
:04affc007f3e000094
:020000040000fa
:102000001011040000000000d21d040000000000b8
:10201000d21d040000000000d21d040000000000da
:10202000d21d040000000000d21d040000000000ca
:10203000d21d040000000000d21d040000000000ba
:10204000d21d040000000000541504000000000030
:10205000d21d040000000000d21d0400000000009a
:102060007a15040000000000a01504000000000024
:10207000d21d040000000000d21d0400000000007a
:10208000d21d040000000000d21d0400000000006a
:10209000d21d040000000000d21d0400000000005a
:1020a000d21d040000000000d21d0400000000004a
:1020b000d21d040000000000d21d0400000000003a
:1020c000d21d040000000000d21d0400000000002a
:1020d000d21d040000000000d21d0400000000001a
:1020e000c615040000000000ec150400000000000c
:1020f000d21d040000000000d21d040000000000fa
:10210000d21d040000000000d21d040000000000e9
:10211000d21d040000000000d21d040000000000d9
:10212000d21d040000000000d21d040000000000c9
:10213000d21d040000000000d21d040000000000b9
:10214000d21d040000000000d21d040000000000a9
:10215000d21d040000000000d21d04000000000099
:10216000d21d040000000000d21d04000000000089
:10217000d21d040000000000d21d04000000000079
:10218000d21d040000000000d21d04000000000069
:10219000d21d040000000000d21d04000000000059
:1021a000d21d040000000000d21d04000000000049
:1021b000d21d040000000000d21d04000000000039
:1021c000d21d040000000000d21d04000000000029
:1021d000d21d040000000000d21d04000000000019
:1021e000d21d040000000000d21d04000000000009
:1021f000d21d040000000000d21d040000000000f9
:10220000d21d040000000000d21d040000000000e8
:10221000d21d040000000000d21d040000000000d8
:020000040000fa
:1000080004100000081000000c1000001010000080
:10001800141000000c1100000c1100000c1100005d
:10002800181000001c100000201000002410000010
:100038000c110000281000002c10000030100000e7
:1000480034100000381000003c1000004010000080
:1000580044100000481000000c1100000c110000b2
:100068004c10000050100000541000005810000000
:100078005c1000000c11000060100000641000000b
:100088000c110000681000006c10000070100000d7
:1000980074100000781000007c1000008010000030
:1000a80084100000881000000c1100000c110000e2
:1000b8000c1100008c10000090100000941000003b
:1000c800981000009c100000a0100000a410000070
:1000d800a8100000ac1000000c1100000c1100006a
:1000e8000c110000b0100000b41000000c1100004a
:1000f8000c110000b8100000bc1000000c1100002a
:100108000c1100000c1100000c1100000c11000073
:100118000c1100000c110000c01000000c110000b0
:100128000c110000c4100000c8100000cc10000022
:100138000c1100000c1100000c1100000c11000043
:10014800d01000000c1100000c1100000c11000070
:100158000c110000d41000000c1100000c1100005c
:100168000c110000d8100000dc100000e0100000a6
:10017800e4100000e8100000ec100000f01000008f
:10018800f4100000f8100000fc100000001100003e
:1001980004110000081100000c1100000c110000ef
:1001a8000c1100000c1100000c1100000c110000d3
:1001b8000c1100000c1100000c1100000c110000c3
:1001c8000c1100000c1100000c1100000c110000b3
:1001d8000c1100000c1100000c1100000c110000a3
:1001e8000c1100000c1100000c1100000c11000093
:0801f8000c1100000c110000c5
:020000040000fa
:102a04000200fa00000f78001e0078000e02070092
:102a14001e027800140a9000e00f520005003200f4
:102a24001e027800140a90001e00780004000100c1
:102a34001a0037001e027800240a9000e00f5200aa
:102a4400140032001e027800040a9000e00f5200c5
:102a54000a0032001e027800240a90001e0078004a
:102a6400040001001e027800040a90008402e900b8
:102a74001e027800050a9800080037001e0078003e
:102a84001a0207001e0278008002eb00250a980053
:102a9400020037001e007800140207000080fa00cc
:102aa400000006003600f800809fbe00829fbe0032
:102ab400849fbe00869fbe003200f80010002000f4
:102ac400900188000000fa0000802000ccff07007d
:102ad4000080fa003200f9004f03be004f02be002e
:102ae4004f01be004f00be003600f9000040060052
:102af4003600f800809fbe00829fbe00849fbe0007
:102b0400869fbe003200f80010002000900188006b
:102b14000000fa0060812000b9ff07000080fa007d
:102b24003200f9004f03be004f02be004f01be0049
:102b34004f00be003600f900004006003600f800e1
:102b4400809fbe00829fbe00849fbe00869fbe0001
:102b54003200f80010002000900188000000fa0004
:102b6400c0822000a6ff07000080fa003200f900ae
:102b74004f03be004f02be004f01be004f00be0017
:102b84003600f900004006003600f800809fbe00c1
:102b9400829fbe00849fbe00869fbe003200f80064
:102ba40010002000900188000000fa00208420001a
:102bb40093ff07000080fa003200f9004f03be00c3
:102bc4004f02be004f01be004f00be003600f900a8
:102bd400004006003600f800809fbe00829fbe00c1
:102be400849fbe00869fbe003200f80010002000c3
:102bf400900188000000fa008085200080ff070013
:102c04000080fa003200f9004f03be004f02be00fc
:102c14004f01be004f00be003600f9000040060020
:102c24000000fa00b4002000841f78004700200050
:102c340036c0b300450920004408200003102000da
:102c440022102000411020000080200033000700e3
:102c54008f87e900c4002000841f78008003eb0004
:102c640076c0b3004509200044082000631020000a
:102c7400c2102000011120006081200027000700fd
:102c84008f87e900d4002000841f780017002000fb
:102c940086c0b3004509200044082000a31020008a
:102ca400e210200021112000c08220001b00070038
:102cb4008f87e900e4002000841f780027002000ab
:102cc400b6c0b30065092000640820004311200049
:102cd400a2112000e1112000208420000f00070031
:102ce4008f87e900f4002000841f7800370020005b
:102cf400c6c0b300650920006408200083112000c9
:102d0400c21120000112200080852000030007006a
:102d14008f87e9000080fa00000006001000fa0026
:102d2400000f7800110798002207980033079800d5
:102d34004407980055079800464f98007707980075
:102d44001e0278009e029000050a78001e02780098
:102d5400ae029000150298001e027800be02900098
:102d6400250298001e027800ce02900035029800d9
:102d74001e027800de029000450298001e027800d0
:102d8400ce4a9000254a98001e027800fe02900068
:102d9400650298001e027800ceba9700750298006a
:102da4001e0278008002eb00050a98001e027800db
:102db4008002eb00150a98001e0278008002eb00e6
:102dc400250a98000080fa00000006000600fa00b8
:102dd400881f7800000f78001207980023079800d6
:102de40018c0b300d27b230063f823001e009000b8
:102df400ae00900012fe070000027800e00f5200bf
:102e040001003c000044eb00e04f540078003a001d
:102e140018c0b300d27b230063e823001e00900097
:102e2400ae00900006fe070000027800e00f52009a
:102e340001003c000044eb00e04f54001500320058
:102e44001e007800e20007001e02780014027800d9
:102e540005032000050a78001e027800140490007f
:102e640002402200437724001e009000ae00900030
:102e7400f5fd07000002be000400be0026fe0700a8
:102e84000002be00040278000402e900040c780089
:102e94005800370018c0b300d27b230063d023004e
:102ea4001e009000ae009000e5fd070000027800cf
:102eb400e00f520001003c000044eb00e04f5400de
:102ec400150032001e007800c10007001e027800c1
:102ed4001402780005022000050a78001e0278001a
:102ee4001404900002402200438724001e00900036
:102ef400ae009000d4fd07000002be000400be0036
:102f040005fe07000002be00040278000402e90086
:102f1400040c78003700370018c0b300d27b2300bc
:102f240063b823001e009000ae009000c4fd0700ab
:102f340000027800e00f520001003c000044eb0066
:102f4400e04f5400150032001e007800a000070076
:102f54001e0278001402780005012000050a78009a
:102f64001e0278001404900002402200439f2400b3
:102f74001e009000ae009000b3fd07000002be00ea
:102f84000400be00e4fd07000002be000402780055
:102f94000402e900040c7800160037001e007800d3
:102fa4008b0007001e027800140278008002eb00f8
:102fb400050a78001e0278001404900002402200e2
:102fc40043b724001e009000ae0090009efd070051
:102fd4000002be000400be00cffd07000002be00d8
:102fe400040278000402e900040c780001003700b0
:102ff400000000004f0478000080fa000000060082
:103004000400fa00889fbe00100798001e0290007a
:103014001402780094027800040320000482620001
:103024004422de00040f78001e027800c222dd0074
:10303400e4892000048242001404be001e029000b1
:103044001402900014027800050020000400be0061
:10305400ccfd07000002be000200200003f823009c
:103064000400be00d7fc07000002be000401be003d
:103074000800be0074fd07000002be000400be008c
:103084004f04be000080fa00000006000600fa00ab
:10309400000f780012079800230798001e01900083
:1030a400ae0190000000200001f8230022fd07007b
:1030b4000002be000401be001e00780043ff0700aa
:1030c4000080fa00000006000200fa00000f7800f9
:1030d4001e007800caff07000002be000401be0003
:1030e4000000200001f8230013fd07000002be00c9
:1030f4000400be000080fa00000006000400fa008c
:10310400889fbe00100798001e02900014027800e9
:103114009402780004032000048262004422de004a
:10312400040f78001e027800c222dd00e48920002a
:10313400048242001404be001e0290001402900097
:1031440014027800050020000400be008dfd070075
:103154000002be000200200003f823000400be00a9
:1031640098fc07000002be000401be000800be0077
:1031740035fd07000002be000400be004f04be007f
:103184000080fa00000006000200fa00000f780038
:103194001e0078002c0007001e0278002402900014
:1031a4008002eb00050a78001e0278001402780001
:1031b4009e02780095027800150378000500280027
:1031c40086827200050a78000080fa00000006007a
:1031d4000200fa00000f78001e0278001402780042
:1031e4009e0278009502780015037800f5ff270009
:1031f40085026300050a78000080fa0000000600da
:103204000200fa00000f78001e02780034029000d9
:10321400940278001e027800244a90000482fb0085
:10322400160020000432dd000482620004f0a700ce
:103234000402ea000402ea004f22de0004007800df
:103244000080fa00000006000200fa00000f780077
:103254001e027800340290009e027800b5029000ad
:10326400150378009e027800a54a90008582fb0031
:1032740017002000853add008582ea00850263009c
:10328400050a78000080fa00000006000200fa0037
:10329400000f78001e0278002402900014027800c7
:1032a400040078000080fa00000006000200fa0022
:1032b400000f78001e027800440290009e027800fd
:1032c400c5029000150378009e027800a54a90007c
:1032d4008582fb0017002000853add00868272009b
:1032e400050a78000080fa00000006000200fa00d7
:1032f400000f78001e027800440290009e027800bd
:10330400c5029000150378009e027800a54a90003b
:103314008582fb0017002000853add008582ea00e3
:1033240085026300050a78000080fa0000000600a8
:103334000800fa00000f780012079800230798008d
:10334400310798001e007800e8ff07001e01900076
:10335400ae0190001e0078009cfe07001e0278005b
:103364008002eb00050a98001e027800be0290005d
:10337400150a98001e0278008002eb00250a9800c6
:103384001e007800c9ff07001e0078007eff0700ba
:103394000080fa00000006000a00fa00000f78001e
:1033a40012079800230798003107980044079800f3
:1033b4001e007800cdff07001e019000ae019000b2
:1033c4001e00780081fe07001e027800be029000f5
:1033d400050a98001e0278008002eb00150a980086
:1033e4001e027800ce029000250a98001e00780084
:1033f400aeff07001e00780063ff07000080fa009c
:10340400000006000200fa00000f78001e00780099
:10341400b6ff07001e0078008bff07001e0078002f
:103424006bff07001e0278008002eb00050a98007b
:103434001e0278008002eb00150a98001e02780034
:103444008002eb00250a98000080fa0000000600c4
:103454000000fa0074c0b300634e2000822d2000e7
:10346400a12d2000e0862000200007000042eb0090
:10347400a34e2000822e2000a12e20006087200071
:103484001a00070014c0b300a34e2000822e2000af
:10349400a12e2000e087200014000700f4c0b30030
:1034a400434e2000022d2000212d200060882000a2
:1034b400ae000700c4c0b300434e2000022d20001c
:1034c400212d2000e0882000a8000700c4c0b3001c
:1034d400234e2000822c2000a12c20006089200093
:1034e400a20007000080fa00000006000a00fa00ab
:1034f400000f7800110798002207980033079800fe
:10350400044f98001e0278009e029000050a78007d
:103514001e027800ae029000150298001e02780088
:10352400be029000250298001e0278008e4a900088
:10353400654298001e027800240290009e027800e2
:10354400a5029000150378009e027800e5429000e1
:103554008582fb0017002000853add008582ea00a1
:1035640085026300050a78001e02780014027800c0
:103574009e02780095027800150378009e02780078
:10358400e54290008582fb0017002000853add00ab
:103594008582ea0085026300050a78001e0278002d
:1035a400140290009e0278009502900015037800a2
:1035b4009e027800e54290008582fb0017002000ff
:1035c400853add008582ea0085026300050a7800f9
:1035d4000080fa00000006000200fa00000f7800e4
:1035e4001e027800140278009e027800950278008a
:1035f400150378009e027800e54290008582fb0066
:1036040017002000853add0086827200050a7800e2
:103614000080fa00000006000200fa00000f7800a3
:103624001e027800140278009e0278009502780049
:10363400150378009e027800e54290008582fb0025
:1036440017002000853add008582ea0085026300c8
:10365400050a78000080fa00000006000200fa0063
:10366400000f78001e027800140278009e02780091
:1036740095027800150378009e027800e5429000d8
:103684008582fb0017002000853add0085026b006f
:10369400050a78000080fa00000006000400fa0021
:1036a400000f7800110798001e029000e00f5200ee
:1036b4000d0032001e027800140278009e02780089
:1036c40095027800150378009e027800e542900088
:1036d4008582fb0017002000853add008682720097
:1036e400050a78000d0037001e02780014027800e5
:1036f4009e02780095027800150378009e027800f7
:10370400e54290008582fb0017002000853add0029
:103714008582ea0085026300050a78000080fa00c9
:10372400000006000200fa00000f78001e02780074
:1037340014027800940278001e027800644290001b
:103744000482fb00160020000432dd0004826200c3
:1037540004f0a7000402ea000402ea004f22de009b
:10376400040078000080fa00000006000a00fa0055
:10377400000f78001107980022079800330798007b
:10378400044f98001e0278009e029000050a7800fb
:103794001e027800ae029000150298001e02780006
:1037a400be029000250298001e0278008e4a900006
:1037b400654298001e027800240290009e02780060
:1037c400a5029000150378009e027800e54290005f
:1037d4008582fb0017002000853add008582ea001f
:1037e40085026300050a78001e0278001402900026
:1037f4009e02780095029000150378009e027800de
:10380400e54290008582fb0017002000853add0028
:1038140086827200050a78000080fa000000060023
:103824000200fa00000f78001e02780014027800eb
:10383400940278001e027800644290000482fb0027
:10384400160020000432dd000482620004f0a700a8
:103854000402ea000402ea004f22de0004007800b9
:103864000080fa00000006002600fa00889fbe00cf
:103874008a9fbe0004102000243a8800f4fe07004a
:10388400e7fc07000002eb00040f78000002eb00e5
:10389400140798000002eb0024079800040020009d
:1038a40005f8230034079800450798000002eb0050
:1038b400540798006e0047000b0009000018eb0045
:1038c400e48620003404be002405be007807980076
:1038d400090f98001a0f98002b0f98006487200096
:1038e4003404be002405be00380f9800490f980028
:1038f4005a0f98006b0f9800e48720003404be0030
:103904002405be00780f9800091798001a1798002c
:103914002b179800e08620002fff07003e0190003f
:10392400ce0190006081200028fd07006081200006
:1039340015fe070001003700000000006081200030
:103944002ffe070000027800e00f5200080032004a
:10395400608120003cfe07005e0290004322dd00ef
:10396400ee02470004824200040078003bff070097
:1039740060882000aaff070000027800e00f5200d0
:103984001d0032001e027800e00f52001a003a00b7
:103994005e0290000402e80054079800de029000e2
:1039a40034002000110009008402d80001027800cc
:1039b4005407980014002000040f78000002eb0064
:1039c40064079800090037006e0290004322dd006e
:1039d400ee02470004824200040078000eff070054
:1039e4006e0290000402e800640798006e029000e2
:1039f400e20f5200f4ff34006088200088ff0700c3
:103a040000027800e00f520002003a000002eb00ce
:103a1400040f7800e088200081ff0700000278008e
:103a2400e00f52001d0032001e029000e00f520011
:103a34001a003a00e088200079ff070000027800ad
:103a440004f0a7000402ea000402e9004f22de00a9
:103a5400840078006087200010ff07001400200015
:103a6400140798003e029000ce0290000401be00ac
:103a74000400be0053fa07000002be003407980099
:103a8400450798003e019000ce019000608120001f
:103a9400cefc070060812000bbfd0700e088200009
:103aa4005fff070000027800e00f520002003a00b6
:103ab4000002eb00140798006089200058ff0700fb
:103ac40000027800e00f52001d0032002e02900028
:103ad400e00f52001a003a006089200050ff0700ee
:103ae4000002780004f0a7000402ea000402e900de
:103af4004f22de0084007800e0872000e7fe070004
:103b04001400200024079800020020000300240071
:103b14003e009000ce00900087fa07000002be002d
:103b240034079800450798003e019000ce019000ac
:103b340060812000a5fc07006081200092fd070041
:103b44006089200036ff070000027800e00f520071
:103b540079ff3a000002eb002407980077ff370052
:020000040000fa
:103b6400000800006e000000800000009e080000b5
:103b74001000000082000000bd37860033bd37000e
:103b84000635bd0037863600bd3786003700000095
:103b94006e080000300000008000000000000000fb
:020000040000fa
:083ba4000040da000000fe0001
:00000001FF
